{
  "contractName": "StateChannel",
  "abi": [
    {
      "constant": true,
      "inputs": [],
      "name": "status",
      "outputs": [
        {
          "name": "",
          "type": "uint8"
        }
      ],
      "payable": false,
      "stateMutability": "view",
      "type": "function"
    },
    {
      "constant": true,
      "inputs": [],
      "name": "deadline",
      "outputs": [
        {
          "name": "",
          "type": "uint256"
        }
      ],
      "payable": false,
      "stateMutability": "view",
      "type": "function"
    },
    {
      "constant": true,
      "inputs": [
        {
          "name": "",
          "type": "uint256"
        }
      ],
      "name": "plist",
      "outputs": [
        {
          "name": "",
          "type": "address"
        }
      ],
      "payable": false,
      "stateMutability": "view",
      "type": "function"
    },
    {
      "constant": true,
      "inputs": [],
      "name": "ac",
      "outputs": [
        {
          "name": "",
          "type": "address"
        }
      ],
      "payable": false,
      "stateMutability": "view",
      "type": "function"
    },
    {
      "constant": true,
      "inputs": [],
      "name": "disputePeriod",
      "outputs": [
        {
          "name": "",
          "type": "uint256"
        }
      ],
      "payable": false,
      "stateMutability": "view",
      "type": "function"
    },
    {
      "constant": true,
      "inputs": [],
      "name": "t_start",
      "outputs": [
        {
          "name": "",
          "type": "uint256"
        }
      ],
      "payable": false,
      "stateMutability": "view",
      "type": "function"
    },
    {
      "constant": true,
      "inputs": [],
      "name": "owner",
      "outputs": [
        {
          "name": "",
          "type": "address"
        }
      ],
      "payable": false,
      "stateMutability": "view",
      "type": "function"
    },
    {
      "inputs": [
        {
          "name": "_plist",
          "type": "address[2]"
        },
        {
          "name": "_disputePeriod",
          "type": "uint256"
        },
        {
          "name": "_acAddress",
          "type": "address"
        }
      ],
      "payable": false,
      "stateMutability": "nonpayable",
      "type": "constructor"
    },
    {
      "anonymous": false,
      "inputs": [],
      "name": "EventFalseChallengeMade",
      "type": "event"
    },
    {
      "anonymous": false,
      "inputs": [],
      "name": "EventFalseAssertionFound",
      "type": "event"
    },
    {
      "anonymous": false,
      "inputs": [
        {
          "indexed": true,
          "name": "deadline",
          "type": "uint256"
        }
      ],
      "name": "EventDispute",
      "type": "event"
    },
    {
      "anonymous": false,
      "inputs": [
        {
          "indexed": true,
          "name": "roundCounter",
          "type": "uint256"
        }
      ],
      "name": "EventResolve",
      "type": "event"
    },
    {
      "anonymous": false,
      "inputs": [
        {
          "indexed": true,
          "name": "roundCounter",
          "type": "uint256"
        },
        {
          "indexed": false,
          "name": "hstate",
          "type": "bytes32"
        }
      ],
      "name": "EventEvidence",
      "type": "event"
    },
    {
      "constant": false,
      "inputs": [
        {
          "name": "_hstate",
          "type": "bytes32"
        },
        {
          "name": "_sigCompany",
          "type": "bytes"
        },
        {
          "name": "_sigUser",
          "type": "bytes"
        },
        {
          "name": "_roundCounter",
          "type": "uint256"
        }
      ],
      "name": "setState",
      "outputs": [],
      "payable": false,
      "stateMutability": "nonpayable",
      "type": "function"
    },
    {
      "constant": false,
      "inputs": [],
      "name": "triggerDispute",
      "outputs": [],
      "payable": false,
      "stateMutability": "nonpayable",
      "type": "function"
    },
    {
      "constant": false,
      "inputs": [
        {
          "name": "_hstate",
          "type": "bytes32"
        },
        {
          "name": "_hstateAssertion",
          "type": "bytes32"
        },
        {
          "name": "_input",
          "type": "string"
        },
        {
          "name": "_command",
          "type": "uint256"
        }
      ],
      "name": "assertState",
      "outputs": [],
      "payable": false,
      "stateMutability": "nonpayable",
      "type": "function"
    },
    {
      "constant": false,
      "inputs": [
        {
          "name": "data",
          "type": "string"
        },
        {
          "name": "description",
          "type": "string"
        },
        {
          "name": "conditions",
          "type": "string"
        },
        {
          "name": "approvedBySender",
          "type": "bool"
        },
        {
          "name": "approvedByUser",
          "type": "bool"
        },
        {
          "name": "turn",
          "type": "address"
        }
      ],
      "name": "challengeAssertion",
      "outputs": [],
      "payable": false,
      "stateMutability": "nonpayable",
      "type": "function"
    },
    {
      "constant": true,
      "inputs": [],
      "name": "getDispute",
      "outputs": [
        {
          "name": "",
          "type": "uint256"
        },
        {
          "name": "",
          "type": "uint256"
        },
        {
          "name": "",
          "type": "uint256"
        }
      ],
      "payable": false,
      "stateMutability": "view",
      "type": "function"
    },
    {
      "constant": true,
      "inputs": [
        {
          "name": "_address",
          "type": "address"
        },
        {
          "name": "_h",
          "type": "bytes32"
        },
        {
          "name": "_sig",
          "type": "bytes"
        }
      ],
      "name": "checkSignature",
      "outputs": [],
      "payable": false,
      "stateMutability": "pure",
      "type": "function"
    },
    {
      "constant": true,
      "inputs": [],
      "name": "getStateHash",
      "outputs": [
        {
          "name": "",
          "type": "bytes32"
        }
      ],
      "payable": false,
      "stateMutability": "view",
      "type": "function"
    }
  ],
  "bytecode": "0x608060405234801561001057600080fd5b506040516080806118c38339810180604052608081101561003057600080fd5b81019080919082604001805190602001909291908051906020019092919050505060008090505b600281101561014e576000848260028110151561007057fe5b602002015190806001815401808255809150509060018203906000526020600020016000909192909190916101000a81548173ffffffffffffffffffffffffffffffffffffffff021916908373ffffffffffffffffffffffffffffffffffffffff16021790555050600180600086846002811015156100eb57fe5b602002015173ffffffffffffffffffffffffffffffffffffffff1673ffffffffffffffffffffffffffffffffffffffff16815260200190815260200160002060006101000a81548160ff0219169083151502179055508080600101915050610057565b5033600460006101000a81548173ffffffffffffffffffffffffffffffffffffffff021916908373ffffffffffffffffffffffffffffffffffffffff1602179055508160038190555080600260006101000a81548173ffffffffffffffffffffffffffffffffffffffff021916908373ffffffffffffffffffffffffffffffffffffffff1602179055506000600a60006101000a81548160ff0219169083151502179055506002600460146101000a81548160ff0219169083600281111561021257fe5b02179055506000600581905550505050611692806102316000396000f3fe6080604052600436106100cf576000357c0100000000000000000000000000000000000000000000000000000000900463ffffffff168062228844146100d4578063200d2ed2146101c657806329dcb0cf146101ff57806330119a021461022a578063445ddf3c1461045857806352f91acf146104d357806354b7c39b146104ea5780635bf31d4d146105415780637591e6271461056c5780637e8cbcb3146105975780638da5cb5b146105c2578063948b557a14610619578063b117aaff14610652578063e9809dea14610738575b600080fd5b3480156100e057600080fd5b506101c4600480360360608110156100f757600080fd5b81019080803573ffffffffffffffffffffffffffffffffffffffff169060200190929190803590602001909291908035906020019064010000000081111561013e57600080fd5b82018360208201111561015057600080fd5b8035906020019184600183028401116401000000008311171561017257600080fd5b91908080601f016020809104026020016040519081016040528093929190818152602001838380828437600081840152601f19601f8201169050808301925050505050505091929192905050506108ab565b005b3480156101d257600080fd5b506101db610983565b604051808260028111156101eb57fe5b60ff16815260200191505060405180910390f35b34801561020b57600080fd5b50610214610996565b6040518082815260200191505060405180910390f35b34801561023657600080fd5b50610456600480360360c081101561024d57600080fd5b810190808035906020019064010000000081111561026a57600080fd5b82018360208201111561027c57600080fd5b8035906020019184600183028401116401000000008311171561029e57600080fd5b91908080601f016020809104026020016040519081016040528093929190818152602001838380828437600081840152601f19601f8201169050808301925050505050505091929192908035906020019064010000000081111561030157600080fd5b82018360208201111561031357600080fd5b8035906020019184600183028401116401000000008311171561033557600080fd5b91908080601f016020809104026020016040519081016040528093929190818152602001838380828437600081840152601f19601f8201169050808301925050505050505091929192908035906020019064010000000081111561039857600080fd5b8201836020820111156103aa57600080fd5b803590602001918460018302840111640100000000831117156103cc57600080fd5b91908080601f016020809104026020016040519081016040528093929190818152602001838380828437600081840152601f19601f820116905080830192505050505050509192919290803515159060200190929190803515159060200190929190803573ffffffffffffffffffffffffffffffffffffffff16906020019092919050505061099c565b005b34801561046457600080fd5b506104916004803603602081101561047b57600080fd5b8101908080359060200190929190505050610fed565b604051808273ffffffffffffffffffffffffffffffffffffffff1673ffffffffffffffffffffffffffffffffffffffff16815260200191505060405180910390f35b3480156104df57600080fd5b506104e861102b565b005b3480156104f657600080fd5b506104ff611126565b604051808273ffffffffffffffffffffffffffffffffffffffff1673ffffffffffffffffffffffffffffffffffffffff16815260200191505060405180910390f35b34801561054d57600080fd5b5061055661114c565b6040518082815260200191505060405180910390f35b34801561057857600080fd5b50610581611152565b6040518082815260200191505060405180910390f35b3480156105a357600080fd5b506105ac61118f565b6040518082815260200191505060405180910390f35b3480156105ce57600080fd5b506105d7611195565b604051808273ffffffffffffffffffffffffffffffffffffffff1673ffffffffffffffffffffffffffffffffffffffff16815260200191505060405180910390f35b34801561062557600080fd5b5061062e6111bb565b60405180848152602001838152602001828152602001935050505060405180910390f35b34801561065e57600080fd5b506107366004803603608081101561067557600080fd5b810190808035906020019092919080359060200190929190803590602001906401000000008111156106a657600080fd5b8201836020820111156106b857600080fd5b803590602001918460018302840111640100000000831117156106da57600080fd5b91908080601f016020809104026020016040519081016040528093929190818152602001838380828437600081840152601f19601f82011690508083019250505050505050919291929080359060200190929190505050611210565b005b34801561074457600080fd5b506108a96004803603608081101561075b57600080fd5b81019080803590602001909291908035906020019064010000000081111561078257600080fd5b82018360208201111561079457600080fd5b803590602001918460018302840111640100000000831117156107b657600080fd5b91908080601f016020809104026020016040519081016040528093929190818152602001838380828437600081840152601f19601f8201169050808301925050505050505091929192908035906020019064010000000081111561081957600080fd5b82018360208201111561082b57600080fd5b8035906020019184600183028401116401000000008311171561084d57600080fd5b91908080601f016020809104026020016040519081016040528093929190818152602001838380828437600081840152601f19601f82011690508083019250505050505050919291929080359060200190929190505050611439565b005b60008060006020840151925060408401519150606084015160001a9050601b8160ff1610156108db57601b810190505b60018582858560405160008152602001604052604051808581526020018460ff1660ff1681526020018381526020018281526020019450505050506020604051602081039080840390855afa158015610938573d6000803e3d6000fd5b5050506020604051035173ffffffffffffffffffffffffffffffffffffffff168673ffffffffffffffffffffffffffffffffffffffff1614151561097b57600080fd5b505050505050565b600460149054906101000a900460ff1681565b60075481565b600160003373ffffffffffffffffffffffffffffffffffffffff1673ffffffffffffffffffffffffffffffffffffffff16815260200190815260200160002060009054906101000a900460ff1615610fe057600160028111156109fb57fe5b600460149054906101000a900460ff166002811115610a1657fe5b148015610a2f5750600a60009054906101000a900460ff165b1515610a3a57600080fd5b8585858585856040516020018087805190602001908083835b602083101515610a785780518252602082019150602081019050602083039250610a53565b6001836020036101000a03801982511681845116808217855250505050505090500186805190602001908083835b602083101515610acb5780518252602082019150602081019050602083039250610aa6565b6001836020036101000a03801982511681845116808217855250505050505090500185805190602001908083835b602083101515610b1e5780518252602082019150602081019050602083039250610af9565b6001836020036101000a03801982511681845116808217855250505050505090500184151515157f010000000000000000000000000000000000000000000000000000000000000002815260010183151515157f01000000000000000000000000000000000000000000000000000000000000000281526001018273ffffffffffffffffffffffffffffffffffffffff1673ffffffffffffffffffffffffffffffffffffffff166c01000000000000000000000000028152601401965050505050505060405160208183030381529060405280519060200120600854141515610c0657600080fd5b6000600260009054906101000a900473ffffffffffffffffffffffffffffffffffffffff1673ffffffffffffffffffffffffffffffffffffffff166303a34a386000600c600b548b8b8b8b8b8b6040518a63ffffffff167c01000000000000000000000000000000000000000000000000000000000281526004018080602001806020018a815260200180602001806020018060200189151515158152602001881515151581526020018773ffffffffffffffffffffffffffffffffffffffff1673ffffffffffffffffffffffffffffffffffffffff16815260200186810386528f8181548152602001915080548015610d5557602002820191906000526020600020905b8160009054906101000a900473ffffffffffffffffffffffffffffffffffffffff1673ffffffffffffffffffffffffffffffffffffffff1681526020019060010190808311610d0b575b505086810385528e818154600181600116156101000203166002900481526020019150805460018160011615610100020316600290048015610dd85780601f10610dad57610100808354040283529160200191610dd8565b820191906000526020600020905b815481529060010190602001808311610dbb57829003601f168201915b505086810384528c818151815260200191508051906020019080838360005b83811015610e12578082015181840152602081019050610df7565b50505050905090810190601f168015610e3f5780820380516001836020036101000a031916815260200191505b5086810383528b818151815260200191508051906020019080838360005b83811015610e78578082015181840152602081019050610e5d565b50505050905090810190601f168015610ea55780820380516001836020036101000a031916815260200191505b5086810382528a818151815260200191508051906020019080838360005b83811015610ede578082015181840152602081019050610ec3565b50505050905090810190601f168015610f0b5780820380516001836020036101000a031916815260200191505b509e50505050505050505050505050505060206040518083038186803b158015610f3457600080fd5b505afa158015610f48573d6000803e3d6000fd5b505050506040513d6020811015610f5e57600080fd5b8101908080519060200190929190505050905080600954141515610fad577fea8cf5194474709abacdf282850bdf318211a97b904edea1f9a7a2a2a5ea582360405160405180910390a1610fda565b7fffa5db3dd77970b3f918ef162aaeac9522f0052a24d9c3d1baa2fc4365438fdd60405160405180910390a15b50610fe5565b600080fd5b505050505050565b600081815481101515610ffc57fe5b906000526020600020016000915054906101000a900473ffffffffffffffffffffffffffffffffffffffff1681565b600160003373ffffffffffffffffffffffffffffffffffffffff1673ffffffffffffffffffffffffffffffffffffffff16815260200190815260200160002060009054906101000a900460ff161561111f576000600281111561108a57fe5b600460149054906101000a900460ff1660028111156110a557fe5b1415156110b157600080fd5b600654420160068190555060035442016007819055506001600460146101000a81548160ff021916908360028111156110e657fe5b02179055506007547fad799e4987f085fcce4ab50c4412211dc8b5aed74bb11e50978b898f958eeb7460405160405180910390a2611124565b600080fd5b565b600260009054906101000a900473ffffffffffffffffffffffffffffffffffffffff1681565b60035481565b600080600281111561116057fe5b600460149054906101000a900460ff16600281111561117b57fe5b14151561118757600080fd5b600854905090565b60065481565b600460009054906101000a900473ffffffffffffffffffffffffffffffffffffffff1681565b60008060008060028111156111cc57fe5b600460149054906101000a900460ff1660028111156111e757fe5b1415156111f357600080fd5b600e60000154600e60010154600e60020154925092509250909192565b600160003373ffffffffffffffffffffffffffffffffffffffff1673ffffffffffffffffffffffffffffffffffffffff16815260200190815260200160002060009054906101000a900460ff161561142e576001600281111561126f57fe5b600460149054906101000a900460ff16600281111561128a57fe5b14151561129657600080fd5b600a60009054906101000a900460ff161515611341576000841415156112bb57600080fd5b6001600a60006101000a81548160ff02191690831515021790555033600d60006101000a81548173ffffffffffffffffffffffffffffffffffffffff021916908373ffffffffffffffffffffffffffffffffffffffff16021790555081600c908051906020019061132d9291906115c1565b5080600b8190555082600981905550611429565b600d60009054906101000a900473ffffffffffffffffffffffffffffffffffffffff1673ffffffffffffffffffffffffffffffffffffffff163373ffffffffffffffffffffffffffffffffffffffff161415151561139e57600080fd5b836009541415156113ae57600080fd5b33600d60006101000a81548173ffffffffffffffffffffffffffffffffffffffff021916908373ffffffffffffffffffffffffffffffffffffffff16021790555081600c90805190602001906114059291906115c1565b5080600b819055506009546008819055508260098190555060035442016007819055505b611433565b600080fd5b50505050565b6005548111151561144957600080fd5b60008460405160200180807f19457468657265756d205369676e6564204d6573736167653a0a333200000000815250601c018281526020019150506040516020818303038152906040528051906020012090506114e06000808154811015156114ae57fe5b9060005260206000200160009054906101000a900473ffffffffffffffffffffffffffffffffffffffff1682866108ab565b611525600060018154811015156114f357fe5b9060005260206000200160009054906101000a900473ffffffffffffffffffffffffffffffffffffffff1682856108ab565b60016005540160058190555084600881905550816005819055506000600460146101000a81548160ff0219169083600281111561155e57fe5b02179055506000600a60006101000a81548160ff0219169083151502179055506005547fbfed543fce167ec10d36e8be2db30aacbe1c6192efa6a7d0ee41c59a5b74cb666008546040518082815260200191505060405180910390a25050505050565b828054600181600116156101000203166002900490600052602060002090601f016020900481019282601f1061160257805160ff1916838001178555611630565b82800160010185558215611630579182015b8281111561162f578251825591602001919060010190611614565b5b50905061163d9190611641565b5090565b61166391905b8082111561165f576000816000905550600101611647565b5090565b9056fea165627a7a72305820224ac7f22760e4a02f8f55601042f9e11e631519d28b7468823853da291e85390029",
  "source": "pragma solidity ^0.5.0;\n\n/*\n * PrivaseeChannelManager\n * Contract that manages overall state (history of all transactions), opens and closes channels\n */\ncontract PrivaseeChannelManager {\n  PrivaseeAC public ac;\n\n  mapping (bytes32 => address) public channelMapping;\n  uint public channelCounter;\n\n  constructor(address _PrivaseeACAddress) public {\n    // Deploys PrivaseeAC Contract\n    if (_PrivaseeACAddress == address(0)) {\n      ac = new PrivaseeAC();\n\n    } else {\n      ac = PrivaseeAC(_PrivaseeACAddress);\n    }\n  }\n\n  // Creates a state channel between members of plist\n  function createStateChannel(bytes memory _sigCompany, bytes memory _sigUser, address _company, address _user, uint256 _disputePeriod) public returns(address){\n    require(_company != _user);\n    require(msg.sender == _user || msg.sender == _company);\n\n    // commitment to create new channel\n      bytes32 agreedMessage = keccak256(abi.encodePacked(\"createChannel\"));\n      bytes32 h = keccak256(abi.encodePacked(\"\\x19Ethereum Signed Message:\\n32\", agreedMessage));\n\n    //Check all parties in channel have signed it\n    checkSignature(_company, h, _sigCompany);\n    checkSignature(_user, h, _sigUser);\n\n    // gets channel key\n    bytes32 key = keccak256(abi.encodePacked(_company, _user));\n\n    // Create channel\n    StateChannel channel = new StateChannel([_company, _user], _disputePeriod, address(ac));\n    channelMapping[key] = address(channel);\n    channelCounter = channelCounter + 1;\n\n    return address(channel);\n  }\n\n  function checkSignature(address _address, bytes32 _h, bytes memory _sig) public pure {\n    bytes32 r;\n    bytes32 s;\n    uint8 v;\n\n    assembly {\n      r := mload(add(_sig, 0x20))\n      s := mload(add(_sig, 0x40))\n      v := byte(0, mload(add(_sig, 0x60)))\n    }\n    // Version of signature should be 27 or 28, but 0 and 1 are also possible versions\n    if (v < 27) {\n      v += 27;\n    }\n    require(_address == ecrecover(_h, v, r, s));\n  }\n\n  function getChannelKey(address _company, address _user) public pure returns(bytes32) {\n    return keccak256(abi.encodePacked(_company, _user));\n  }\n}\n\n/*\n * StateChannel\n * Contract that manages off-chain interactions, it stores the latest agreed State\n * as proof consensensus til that point\n */\ncontract StateChannel {\n  address[] public plist; // List of participants\n  mapping (address => bool) pmap; // Map of participants\n\n  PrivaseeAC public ac;\n\n  enum Status { ON, DISPUTE, OFF }\n\n  uint256 public disputePeriod; // Time to resolve a new state in a dispute\n  address public owner; // Address of AC\n\n  Status public status;\n\n  uint256 roundCounter; // Counter of current State\n  uint256 public t_start;\n  uint256 public deadline;\n\n  bytes32 hstate; // (string data, string description, string conditions, uint approvedBySender, uint approvedByUser, address turn, uint256 roundCounter)\n  bytes32 hstateAssertion;\n  bool assertion;\n  uint command;\n  string input;\n  address asserter;\n\n  struct Dispute {\n    uint256 round;\n    uint256 t_start;\n    uint256 t_settle;\n  }\n\n  Dispute dispute;\n\n  event EventFalseChallengeMade ();\n  event EventFalseAssertionFound ();\n  event EventDispute (uint256 indexed deadline);\n  event EventResolve (uint256 indexed roundCounter);\n  event EventEvidence (uint256 indexed roundCounter, bytes32 hstate);\n\n  modifier onlyOwner { if(owner == msg.sender) _; else revert(); }\n  modifier onlyParticipants { if(pmap[msg.sender]) _; else revert(); }\n\n  constructor(address[2] memory _plist, uint _disputePeriod, address _acAddress) public {\n\n    for (uint i = 0; i< _plist.length; i++ ) {\n      plist.push(_plist[i]);\n      pmap[_plist[i]] = true;\n    }\n\n    owner = msg.sender;\n    disputePeriod = _disputePeriod;\n    ac = PrivaseeAC(_acAddress);\n    assertion = false;\n    status = Status.OFF;\n    roundCounter = 0;\n  }\n\n  // Party sets State to last agreed state\n  // _hstate is a hash of new agreed state\n  // (string data, string description, string conditions, uint approvedBySender, uint approvedByUser, address turn, uint256 roundCounter)\n  function setState(bytes32 _hstate, bytes memory _sigCompany, bytes memory _sigUser, uint256 _roundCounter) public {\n    require(_roundCounter > roundCounter);\n    bytes32 h = keccak256(abi.encodePacked(\"\\x19Ethereum Signed Message:\\n32\", _hstate));\n\n    // check if all parties have signed it\n    checkSignature(plist[0], h, _sigCompany);\n    checkSignature(plist[1], h, _sigUser);\n\n    // Agreed state\n    roundCounter = roundCounter + 1;\n    hstate = _hstate;\n    roundCounter = _roundCounter;\n    status = Status.ON;\n    assertion = false;\n\n    // Tell everyone about new State\n    emit EventEvidence(roundCounter, hstate);\n  }\n\n  // Signals there is a dispute and changes the state of the channel\n  function triggerDispute() onlyParticipants public {\n    require(status == Status.ON);\n    t_start = block.timestamp + t_start;\n    deadline = block.timestamp + disputePeriod;\n    status = Status.DISPUTE;\n\n    emit EventDispute(deadline);\n  }\n\n  // Party makes an assertion for a new state\n  function assertState(bytes32 _hstate, bytes32 _hstateAssertion, string memory _input, uint _command) onlyParticipants public {\n  require(status == Status.DISPUTE);\n\n    if (!assertion) {\n      require(_hstate == ''); // First assertion\n      assertion = true;\n      asserter = msg.sender;\n      input = _input;\n      command = _command;\n      hstateAssertion = _hstateAssertion;\n    } else {\n      require(msg.sender != asserter); // next player can extend assertion (play on chain)\n      require(hstateAssertion == _hstate); // Extending existing assertion\n\n      // Store assertion\n      asserter = msg.sender;\n      input = _input;\n      command = _command;\n\n      // Update hstate and hstateAssertion\n      hstate = hstateAssertion;\n      hstateAssertion = _hstateAssertion;\n\n      deadline = block.timestamp + disputePeriod; // Reset deadline after assertion\n    }\n  }\n\n  // Other party challenges the assertion\n  function challengeAssertion(\n    string memory data,\n    string memory description,\n    string memory conditions,\n    bool approvedBySender,\n    bool approvedByUser,\n    address turn\n    ) onlyParticipants public {\n\n    require(status == Status.DISPUTE && assertion);\n    // checks they have given us the correct oldState\n    require(hstate == keccak256(abi.encodePacked(data, description, conditions, approvedBySender, approvedByUser, turn)));\n\n    // Computes transition on-chain\n    bytes32 check = ac.transition(plist, input, command, data, description, conditions, approvedBySender, approvedByUser, turn);\n    if(hstateAssertion != check) {\n      // Send coins and bond to non-cheater\n      emit EventFalseAssertionFound();\n    } else {\n      emit EventFalseChallengeMade();\n    }\n    // TODO: strike system punishes asserter for cheating\n  }\n\n  function getDispute() public view returns (uint256, uint256, uint256) {\n    require(status == Status.ON);\n    return (dispute.round, dispute.t_start, dispute.t_settle);\n  }\n\n  // helper function to verfy signatures\n  function checkSignature(address _address, bytes32 _h, bytes memory _sig) public pure {\n    bytes32 r;\n    bytes32 s;\n    uint8 v;\n\n    assembly {\n      r := mload(add(_sig, 0x20))\n      s := mload(add(_sig, 0x40))\n      v := byte(0, mload(add(_sig, 0x60)))\n    }\n    // Version of signature should be 27 or 28, but 0 and 1 are also possible versions\n    if (v < 27) {\n      v += 27;\n    }\n    require(_address == ecrecover(_h, v, r, s));\n  }\n\n  // Fetch latest state hash, only doable when dispute has concluded\n  function getStateHash() public view returns (bytes32) {\n    require(status == Status.ON);\n    return hstate;\n  }\n}\n\n/*\n * PrivaseeAC (Application Contract)\n * Privasee Functionality + Transition checkup\n * Necessary to avoid circular reference\n */\ncontract PrivaseeAC {\n\n  function transition(\n    address[] memory plist,\n    string memory input,\n    uint command,\n    string memory data,\n    string memory description,\n    string memory conditions,\n    bool approvedBySender,\n    bool approvedByUser,\n    address turn\n    ) public pure returns (bytes32) {\n\n    // If command is requestApproval\n    if (command == 1) {\n      if (turn == plist[1]) return keccak256(abi.encodePacked('ERROR')); // checks that its the company's turn\n      return keccak256(abi.encodePacked(data, description, conditions, approvedBySender, approvedByUser, plist[1]));\n    }\n\n    // If command is userApprove\n    if (command == 2) {\n      if (turn == plist[0]) return keccak256(abi.encodePacked('ERROR')); // checks that its the user's turn\n      return keccak256(abi.encodePacked(data, description, conditions, approvedBySender, true , plist[0]));\n    }\n\n    // If command is senderApprove\n    if (command == 3) {\n      if (turn == plist[1]) return keccak256(abi.encodePacked('ERROR')); // checks that its the company's turn\n      return keccak256(abi.encodePacked(data, description, conditions, true, approvedByUser, plist[1]));\n    }\n\n    // If command is rejectAndFinalise\n    if (command == 4) {\n      if (turn == plist[0]) return keccak256(abi.encodePacked('ERROR')); // checks that its the user's turn\n      return keccak256(abi.encodePacked(data, description, conditions, approvedBySender, false, plist[0]));\n    }\n\n    // If command is disputeConditions\n    if (command == 5) {\n      if (turn == plist[1]) {\n        return keccak256(abi.encodePacked(data, description, input, false, true, plist[0]));\n      } else {\n        return keccak256(abi.encodePacked(data, description, input, true, false, plist[1]));\n      }\n    }\n\n    return 0;\n  }\n}\n",
  "sourcePath": "/Users/manuel/Production/Privasee/PrivaseeStateChannel/contracts/stateChannelManager.sol",
  "compiler": {
    "name": "solc",
    "version": "0.5.0+commit.1d4f565a.Emscripten.clang"
  },
  "schemaVersion": "3.0.2",
  "updatedAt": "2019-08-30T11:41:54.945Z",
  "devdoc": {
    "methods": {}
  },
  "userdoc": {
    "methods": {}
  }
}